S00F000061726475696E6F2E7372656323
S11300000C945E000C9486000C9486000C9486007C
S11300100C949B0D0C9486000C9486000C94860022
S11300200C9486000C9486000C9486000C94A30D0A
S11300300C9486000C9486000C9486000C94860024
S11300400C942A040C9486000C94A2060C94D406F6
S11300500C9486000C9486000C9486000C94860004
S11300600C9486000C948600000000080002010035
S1130070000304070000000000000000010204085F
S113008010204080010204081020010204081020FE
S1130090040404040404040402020202020203032A
S11300A00303030300000000250028002B000000C8
S11300B00000240027002A001704FA0611241FBE9A
S11300C0CFEFD8E0DEBFCDBF12E0A0E0B1E0ECEAB4
S11300D0F1E202C005900D92A639B107D9F725E0E7
S11300E0A6E9B2E001C01D92A836B207E1F710E01C
S11300F0CEE5D0E004C02197FE010E94ED0DCC3581
S1130100D107C9F70E94EB030C94D4100C94970DFB
S11301102F923F924F925F926F927F928F929F9213
S1130120AF92BF92CF92DF92EF92FF920F931F9301
S1130130CF93DF93E42FF52F419050804F925F923D
S1130140E42FF52F4DB65EB6419250820C94A80070
S1130150E62FF72F419050804DBE5EBE5F904F90CA
S1130160E62FF72F41925082DF91CF911F910F918B
S1130170FF90EF90DF90CF90BF90AF909F908F90C3
S11301807F906F905F904F903F902F900C94E00879
S1130190E62FF72F419150814DBF5EBF0C94E908C3
S11301A02F923F924F925F926F927F928F929F9283
S11301B0AF92BF92CF92DF92EF92FF920F931F9371
S11301C0CF93DF93E42FF52F419050804F925F92AD
S11301D0E42FF52F4DB65EB6419250820C94C800C0
S11301E0E82FF92F419150814DBF5EBFE62FF72FC5
S11301F00994000090E080E008950895CF93DF9380
S1130200EC0160E08E810E942B0581E090E00E9469
S1130210800461E08E810E942B0581E090E00E94C1
S1130220800460E08E810E942B0584E690E0DF91DB
S1130230CF910C948004CF92DF92EF92FF920F93B0
S11302401F93CF93DF936C017C0187E0E80EF11CD0
S1130250D0E0C0E0062F10E0B8010C2E02C0759566
S113026067950A94E2F76170F70181917F010E941A
S11302702B052196C430D10579F7C601DF91CF91C2
S11302801F910F91FF90EF90DF90CF900C94FE00A0
S1130290CF92DF92EF92FF920F931F93CF93DF934E
S11302A06C017C0187E0E80EF11CD0E0C0E0062F71
S11302B010E0B8010C2E02C0759567950A94E2F718
S11302C06170F70181917F010E942B052196C8304E
S11302D0D10579F7C601DF91CF911F910F91FF905E
S11302E0EF90DF90CF900C94FE001F93CF93DF9399
S11302F0EC01162F642F8C810E942B058D818F3F7A
S113030019F060E00E942B058F85612F84FF06C0E1
S1130310CE01DF91CF911F910C94480170E084E0ED
S1130320759567958A95E1F7CE010E941B01612FAF
S1130330CE01DF91CF911F910C941B0140E00C94EE
S1130340750161E00E949E0180ED97E00C948004A9
S1130350FC016089262F2460208B6C600C949E0124
S11303600F931F93CF93DF93EC01423018F08F85E6
S113037088608F874B8B1C8A80E48D8B6E8B605CCE
S11303806F8B222329F0413019F48F8584608F8785
S113039061E08C810E94EF048D818F3F19F061E050
S11303A00E94EF0461E08E810E94EF048E019801A7
S11303B02C1B3D0B8F8584FD0DC084E090E00F5F06
S11303C01F4F281739074CF461E0F80186810E9419
S11303D0EF04EDCF88E090E0F2CF80E593EC0E944B
S11303E0800460E08C810E942B0560E08E810E9475
S11303F02B058D818F3F19F060E00E942B056F85DE
S113040064FD33C063E0CE010E941B0184E991E1E5
S11304100E94800463E0CE010E941B0184E991E103
S11304200E94800463E0CE010E941B0186E990E0F3
S11304300E94800462E0CE010E941B016F8560620D
S1130440CE010E949E0184E0888BCE010E94A80107
S1130450CE010E94A10182E0898B66E0CE01DF918A
S1130460CF911F910F910C949E016062CE010E9466
S11304709E0184E991E10E9480046F856062CE014F
S11304800E949E0186E990E00E9480046F8560626C
S1130490CE010E949E01D2CFCF92EF920F93FC0126
S11304A0138212828CE691E09183808364838FEFC0
S11304B08583468327830087E186C2861386148654
S11304C015861686178620E041E060E1CF010F9182
S11304D0EF90CF900C94B00141E00E94750181E04F
S11304E090E008950E946503809197028F93809114
S11304F096028F9384E791E09F938F930E943C032D
S113050080919602909197024496909397028093DB
S113051096020F900F900F900F900C9497080E94E2
S113052065038DE791E09F938F930E943C0387E8D6
S113053091E09F938F930E94B10310920401109253
S113054097021092960268EB7BE080E090E00E94B4
S1130550690381E08093040188EE93E0909397020D
S1130560809396020F900F900F900F900C94970821
S113057080E00E94B1088091040123E931E08111F7
S113058002C028E931E040910001509101016091DD
S1130590020170910301DB01CA010196A11DB11D85
S11305A0411551056105710549F548EE53E0509335
S11305B0970240939602409196025091970280933D
S11305C0000190930101A0930201B09303015F9392
S11305D04F933F932F93BF93AF939F938F9385EA4A
S11305E091E09F938F930E94B1038DB79EB70A96B3
S11305F00FB6F8949EBF0FBE8DBF089577FFDBCF73
S11306008093000190930101A0930201B093030130
S1130610BF93AF939F938F938DE991E09F938F93B3
S11306200E94B1030F900F900F900F900F900F90B6
S113063008950E94C907309913C08AEB91E09F93F3
S11306408F930E94B1038EE00E9459050F900F9082
S1130650883C91051CF483E00E9462080C94D10745
S1130660089520E042E060E188E992E00E94B00150
S113067088E992E00C94A101CF93DF93CDB7DEB764
S1130680C058D1090FB6F894DEBF0FBECDBF9E018E
S11306902B573F4FF901419151919F0160E870E060
S11306A0CE0101960E94F30DBE016F5F7F4F88E972
S11306B092E00E946307C058DF4F0FB6F894DEBF84
S11306C00FBECDBFDF91CF91089588E992E00C94DD
S11306D0A1014F925F926F927F928F929F92AF92FD
S11306E0BF92CF92DF92EF92FF926B017C010E9446
S11306F074044B015C010E947404C701B60124E137
S113070030E040E050E00E94CB0D29013A01C12CB9
S1130710D12C76014C145D046E047F04A9F00E9470
S11307207404681979098A099B0964317105810582
S1130730910580F38FEFC81AD80AE80AF80A0E94D4
S113074074044B015C01E6CFFF90EF90DF90CF90F3
S1130750BF90AF909F908F907F906F905F904F90DD
S11307600895CF93DF93CDB7DEB7C058D1090FB644
S1130770F894DEBF0FBECDBF9E012B573F4FF9014A
S1130780419151919F0160E870E0CE0101960E9471
S1130790F30DBE016F5F7F4F8AEC94E00E94630704
S11307A0C058DF4F0FB6F894DEBF0FBECDBFDF9148
S11307B0CF91089526E040E855E260E070E08AECCD
S11307C094E00E9440060E94310360E472E48FE0EA
S11307D090E00C946B0781E088B992E090936800F4
S11307E080936C008FEF8CBB78940E948B040E94E2
S11307F0DA0387EC91E09F938F930E94B10389ED14
S113080091E09F938F930E94B10388EC91E09F93B2
S11308108F930E94B10380E00E94DB070F900F903A
S11308200F900F900F900F9090E080E00895CF927A
S1130830EF920F9387E0C82E96E0E92E05E024E0BE
S113084049E068E088E992E00E944C020F91EF9041
S1130850CF9008951F920F920FB60F9211242F93E9
S11308603F938F939F93AF93BF938091C2049091D2
S1130870C304A091C404B091C5043091C10423E021
S1130880230F2D3758F50196A11DB11D2093C104E6
S11308908093C2049093C304A093C404B093C5048A
S11308A08091C6049091C704A091C804B091C90472
S11308B00196A11DB11D8093C6049093C704A09313
S11308C0C804B093C904BF91AF919F918F913F9198
S11308D02F910F900FBE0F901F90189526E8230FAD
S11308E00296A11DB11DD2CF2FB7F8946091C20416
S11308F07091C3048091C4049091C5042FBF0895DE
S11309008230910538F0880F991F880F991F059739
S11309100197F1F70895789484B5826084BD84B515
S1130920816084BD85B5826085BD85B5816085BDE6
S1130930EEE6F0E0808181608083E1E8F0E01082FF
S1130940808182608083808181608083E0E8F0E040
S1130950808181608083E1EBF0E08081846080832A
S1130960E0EBF0E0808181608083EAE7F0E0808161
S113097084608083808182608083808181608083C1
S11309808081806880831092C1000895833081F053
S113099028F4813099F08230A9F008958730A9F0C5
S11309A08830C9F08430B1F4809180008F7D03C019
S11309B0809180008F7780938000089584B58F772D
S11309C084BD089584B58F7DFBCF8091B0008F776F
S11309D08093B00008958091B0008F7DF9CFCF93BC
S11309E0DF9390E0FC01E458FF4F249180579F4F20
S11309F0FC0184918823C9F090E0880F991FFC01C1
S1130A00E255FF4FA591B491FC01EC55FF4FC59100
S1130A10D49161110DC09FB7F8948C9120958223D5
S1130A208C938881282328839FBFDF91CF910895D9
S1130A30623051F49FB7F8943C91822F80958323C0
S1130A408C93E8812E2BEFCF8FB7F894EC912E2B5B
S1130A502C938FBFEACF1F93CF93DF93282F30E0DF
S1130A60F901E859FF4F8491F901E458FF4FD491FB
S1130A70F901E057FF4FC491CC23A9F0162F81113F
S1130A800E94C604EC2FF0E0EE0FFF1FEC55FF4F61
S1130A90A591B4918FB7F894EC91111108C0D09539
S1130AA0DE23DC938FBFDF91CF911F910895DE2B5E
S1130AB0F8CF8E3008F08E502091670190E4299F82
S1130AC0900111248770822B80937C0080917A009E
S1130AD0806480937A0080917A0086FDFCCF8091B7
S1130AE07800909179000895FC01918D228D892FD1
S1130AF090E0805C9F4F821B91098F739927089522
S1130B00FC01918D828D981731F0828DE80FF11DD3
S1130B10858D90E008958FEF9FEF0895FC01918DEE
S1130B20828D981761F0A28DAE0FBF2FB11D5D9617
S1130B308C91928D9F5F9F73928F90E008958FEFB9
S1130B409FEF0895FC01538D448D252F30E0842FB1
S1130B5090E0821B930B541710F0CF9608950197E1
S1130B600895FC01A48DA80FB92FB11DA35ABF4F3E
S1130B702C91848D90E001968F739927848FA68998
S1130B80B7892C93A089B1898C91837080648C93EC
S1130B90938D848D981306C00288F389E02D80819B
S1130BA08F7D80830895CF93DF93EC01888D882314
S1130BB0B9F0AA89BB89E889F9898C9185FD03C0BC
S1130BC0808186FD0DC00FB607FCF7CF8C9185FFA1
S1130BD0F2CF808185FFEDCFCE010E94B105E9CF30
S1130BE0DF91CF910895EF92FF920F931F93CF93CC
S1130BF0DF93EC0181E0888F9B8D8C8D98131AC054
S1130C00E889F989808185FF15C09FB7F894EE893A
S1130C10FF896083E889F989808183708064808397
S1130C209FBF81E090E0DF91CF911F910F91FF90E2
S1130C30EF900895F62E0B8D10E00F5F1F4F0F738A
S1130C401127E02E8C8D8E110CC00FB607FCFACF45
S1130C50E889F989808185FFF5CFCE010E94B1052D
S1130C60F1CFEB8DEC0FFD2FF11DE35AFF4FF08216
S1130C709FB7F8940B8FEA89FB8980818062CFCF7C
S1130C80CF92DF92EF92FF921F93CF93DF93EC0109
S1130C906A017B01122FE889F98982E08083C114FB
S1130CA081EED806E104F104A1F060E079E08DE37F
S1130CB090E0A70196010E94CB0D21503109410912
S1130CC051095695479537952795211580E13807A1
S1130CD098F0E889F989108260E874E88EE190E080
S1130CE0A70196010E94CB0D2150310941095109F8
S1130CF05695479537952795EC85FD853083EE8588
S1130D00FF852083188EEC89FD891083EA89FB898D
S1130D10808180618083EA89FB8980818860808307
S1130D20EA89FB89808180688083EA89FB898081E4
S1130D308F7D8083DF91CF911F91FF90EF90DF90A3
S1130D40CF9008951F920F920FB60F9211242F93F4
S1130D508F939F93EF93FF93E091DA04F091DB0478
S1130D608081E091E004F091E10482FD1BC0908158
S1130D708091E3048F5F8F732091E404821741F024
S1130D80E091E304F0E0E653FB4F958F8093E30496
S1130D90FF91EF919F918F912F910F900FBE0F9024
S1130DA01F9018958081F4CF1F920F920FB60F9267
S1130DB011242F933F934F935F936F937F938F935C
S1130DC09F93AF93BF93EF93FF938AEC94E00E94B9
S1130DD0B105FF91EF91BF91AF919F918F917F9159
S1130DE06F915F914F913F912F910F900FBE0F9094
S1130DF01F901895EAECF4E01382128288EE93E0D7
S1130E00A0E0B0E084839583A683B78387E892E06B
S1130E109183808385EC90E09587848784EC90E0CF
S1130E209787868780EC90E0918B808B81EC90E0B3
S1130E30938B828B82EC90E0958B848B86EC90E094
S1130E40978B868B118E128E138E148E0895AF920B
S1130E50BF92CF92DF92EF92FF920F931F93CF93A3
S1130E60DF936C017B018B01040F151FEB015E0105
S1130E70AE18BF08C017D10759F06991D601ED919A
S1130E80FC910190F081E02DC6010995892B79F739
S1130E90C501DF91CF911F910F91FF90EF90DF90EB
S1130EA0CF90BF90AF900895FB0101900020E9F727
S1130EB03197AF01461B570BDC01ED91FC91028089
S1130EC0F381E02D09946115710511F00C94540718
S1130ED090E080E0089510928100109280001092BA
S1130EE082001092850010928400611520E172073F
S1130EF081059105A0F4E4E0660F771FEA95E1F718
S1130F006150710981E092E096BB90936F007093F9
S1130F10890060938800886080938100089561153A
S1130F2020E872078105910530F4660F771F615040
S1130F30710982E0E8CF6C3F2FEF720723E082074C
S1130F40910558F442E096958795779567954A956B
S1130F50D1F76150710983E0D6CF6115710520E1A5
S1130F608207910558F434E09695879577956795AF
S1130F703A95D1F76150710984E0C5CF26E0969582
S1130F808795779567952A95D1F76150710985E022
S1130F90BACFE091FC01F091FD01F89481E0818BDE
S1130FA00895E091FC01F091FD018189882311F0FD
S1130FB0118A789408957F928F929F92AF92BF92F4
S1130FC0CF92DF92EF92FF920F931F93CF93DF9311
S1130FD000D0CDB7DEB70091FC011091FD019FB7A1
S1130FE0F894D80118962D913C91232B99F09FBF2A
S1130FF081E090E00F900F90DF91CF911F910F91BE
S1131000FF90EF90DF90CF90BF90AF909F908F9024
S11310107F90089529E93DE03A832983C090FE0139
S1131020D090FF0121E030E0F801318720878287EA
S1131030E0910002F091010224E0829FC00111249A
S1131040E80FF91FA280B380F12CE12C4F0186E058
S1131050782EEA14FB04E1F4F80180859185019768
S113106021F482E090E091878087D80118968D91D1
S11310709C91029751F4F60162817381AB01C60120
S11310800E94D000C6010E94150A90E080E0B2CF11
S1131090D401ED91FC917E9CC0017F9C900D1124A4
S11310A0E80FF91FA081B1812481358142815381E8
S11310B0BD0112968D919C910E94060DBFEFEB1A13
S11310C0FB0AC7CFFF920F931F93CF93DF9390E058
S11310D02091EE013091EF018217930728F52091BA
S11310E0EC013091ED01880F991F820F931FFC01D1
S11310F000811181F801878190850297A8F4FFB6D9
S1131100F894C8010E94030AEC01892B29F4B80160
S11311108AEE91E00E945F0AFFBECE01DF91CF917B
S11311201F910F91FF900895C3E0D0E0F6CFE091B6
S1131130FC01F091FD01A081B1818785882319F01C
S1131140178685858FBF8189882311F0118A789449
S11311508FB7F89461E87DE012968D919C910E947E
S1131160F000CF9390E02091F6013091F7018217BF
S1131170930718F52091F4013091F501880F991F18
S1131180820F931FFC0180819181CFB7F8940E9454
S1131190400CE091FC01F091FD010190F081E02D03
S11311A087819085029720F48AEE91E00E947A0B61
S11311B0CFBF90E080E0CF91089583E090E0FBCF33
S11311C0DC011496ED91FC9184E090E0938382839A
S11311D00895EC01EC81FD81818124E030E03383CA
S11311E022838F3F09F07894E985FA850995E09187
S11311F0FC01F091FD01108A8785882319F0178678
S113120085858FBF8189882311F0118A78948FB7DF
S1131210F8948F819885EC81FD81029709F5A4816A
S1131220B581109731F461E87DE08A819B810E9449
S1131230F0000D90BC91A02D14961C921E92139751
S11312408D919C9195838483EACF0D90BC91A02DC0
S113125014961C921E9213978D919C91958384836E
S1131260A481B581109789F7DECFE091FC01F0915C
S1131270FD01808591850297E1F38091FE019091B3
S1131280FF010C94660D0F931F93CF93DF93EC0132
S1131290A881B981EB01E881F9811696CD91DC91A1
S11312A017972097C1F18A819B81309709F43FC039
S11312B0EC010C811D8122813381E9014C815D8126
S11312C0E8013981EA012981321788F522E030E00A
S11312D0E8013B832A8320813181EB013983288310
S11312E0C281D3812C813D8116964D915C911797D3
S11312F0518340831796FC93EE931697CD93DC931A
S11313004C85F9015181541708F44183DF91CF9141
S11313101F910F910895309751F0EC018A819B81C0
S1131320EC014C815D8122E030E0EA01D2CF90E013
S113133080E0ECCFCF93DF93DB011296ED91FC912B
S113134041155105A1F02385DC01ED91FC91B0E03C
S1131350A0E0309789F4109709F16D937C9390E0A5
S113136080E0DB01ED93FC93DF91CF91089504803D
S1131370F581E02D2181E8CFC281D381411551054A
S113138041F03B85321738F3DF010190F081E02D05
S1131390E0CF0C80DD81C02D3981F4CFDC016D9369
S11313A07C9381E090E0DDCFFB015383428341E0F5
S11313B050E00C949A09EF92FF920F931F93CF93EE
S11313C0DF938C01FC01C081D181EE80FF80F701A5
S11313D0808191819F838E83C8010E944309892B58
S11313E041F4EE81FF81309761F08281938199838A
S11313F08883C701DF91CF911F910F91FF90EF90E8
S11314000895F801F2CFDC011496ED91FC91159743
S113141090811D968C91981728F49F5F908390E09B
S113142080E0089584E090E00895DC011496ED9145
S1131430FC9115971B968C918183808181508083C8
S1131440811103C013821282089581E090E0938396
S113145082830895DC011496ED91FC918085918539
S1131460862B972B91878087DA011D921C928681A7
S1131470978168237923672B39F0828593850097B8
S113148029F013861286089590E080E00895E09193
S1131490EC01F091ED0190E0880F991FE80FF91F1E
S11314A060817181DB011496ED91FC9180818F5FE5
S11314B0808350E040E08AEE91E00C94950BEF922B
S11314C0FF920F931F93CF93DF93DB011496ED905C
S11314D0FC90E091FC01F091FD0180819181EC018F
S11314E04C815D81A481B5812D913C911197EA01D4
S11314F00981E7011981011710F53583248322E05E
S113150030E0EA013B832A8313967C936E9312970F
S11315102681378111963C932E93B783A6837183DA
S11315206083F701118610860E94400D81E090E0EF
S1131530DF91CF911F910F91FF90EF9008958A81D1
S11315409B81892B31F481E090E09B838A83198607
S113155018863583248311961C921E92AB01BD011B
S1131560CF0102960E94D40990E080E0E1CFAB0164
S1131570FB01A481B581E091FC01F091FD0112967B
S11315808D919C911397892B51F481E090E01396EF
S11315909C938E93129719961C921E921897A4816D
S11315A0B5818D919C9111979583848311961C929A
S11315B01E92BD01CF0102960C94D4090F931F9380
S11315C0CF93DF93DB0112964D915C91FA01C481B4
S11315D0D5810091FC011091FD0182E090E09B8394
S11315E08A8383858983C80102960E94D40901975E
S11315F091F4D801ED91FC910480F581E02D81E016
S113160090E039812181231708F080E0DF91CF91A8
S11316101F910F91089580E090E0F8CFAF92BF92B0
S1131620CF92DF92EF92FF920F931F93CF93DF93AA
S1131630C091FC01D091FD01FE01E190F1906F0198
S1131640F70104811581FB01F182E082F8018281B6
S11316509381049731F5B6018CEF91E00E94DB0988
S11316605C01C880D980EC14FD04B1F0C7010E946C
S1131670150A8C819D81F50191838083BD82AC82A2
S1131680C601DF91CF911F910F91FF90EF90DF90F2
S1131690CF90BF90AF900895F801808181508083EE
S11316A0E8CF6E817F81FB01808191819F838E834E
S11316B0F7018385F801818381E090E0938382833D
S11316C08081813011F411861086A701C6010E9421
S11316D0D409B6018CEF91E00E944309892B39F4B7
S11316E0EE81FF81C280D380D982C882C9CFC880ED
S11316F0D980C6CFCF93DF93C091FC01D091FD0177
S1131700BE016E5F7F4F8CEF91E00E94430900970A
S113171049F0688179810E94400D81E090E0DF9179
S1131720CF91089590E080E0FACFCF93DF93E091DA
S1131730FC01F091FD018081918126813781EC01CA
S1131740AC81BD811296CD91DC911397249731F42D
S1131750C2E0D0E01396DC93CE931297718360833A
S113176041155105B9F4A481B5814D915C9111974E
S11317705583448311961C921E92B783A6830680D8
S1131780F781E02D7383628331832083DF91CF91CE
S11317900C94400D57834683F2CFAF92BF92CF9201
S11317A0DF92EF92FF920F931F93CF93DF93DC01AD
S11317B0AD90BC90E501E881F9812A813B81DB0190
S11317C0CD90DC90E6015B834A8381E090E0B0E059
S11317D0A0E0309711F00097A9F4109779F10D90DB
S11317E0BC91A02D6D937C93E601F983E883DF918E
S11317F0CF911F910F91FF90EF90DF90CF90BF900A
S1131800AF90089500811181E801EA80FB802E15D4
S11318103F0558F44E155F0518F42417350758F0A2
S1131820DF01E801E881F981D4CF2417350718F0E6
S11318304E155F05A8F790E080E0CBCFD501D2CF5D
S1131840CF93DF93DC011296ED91FC9113970D90E9
S1131850BC91A02D12962D913C91DF01A41BB50BD8
S1131860A217B30730F0420F531FDF91CF910C94AE
S1131870CD0B41505109420F531F4E1B5F0BF5CF47
S11318808F929F92AF92BF92CF92DF92EF92FF928C
S11318900F931F93CF93DF9300D0CDB7DEB7DC0156
S11318A0CD90DC901197F6012281338112964D91EF
S11318B05C912417350708F471C01382128230E05A
S11318C020E0F601008111810115110509F457C0CA
S11318D0D801ED91FC91119742815381421753072E
S11318E009F04DC023E0E22EF12C2D913C91F90139
S11318F0F582E482A081B181109749F06D917C91C9
S11319001197FB01628173814617570771F37C01BC
S1131910F90111821082F601B183A08382E0C82EFE
S1131920D12CD801ED91FC911197A080B1801A823D
S113193019821C968D919C911D978130910509F413
S113194042C088F18230910509F452C0039709F42A
S113195055C0D801ED91FC9184819581039761F480
S1131960468157814115510509F44DC0D582C48281
S1131970B801C7010E94200C8501AB2891F60F9095
S11319800F90DF91CF911F910F91FF90EF90DF9017
S1131990CF90BF90AF909F908F9008952F5F3F4F4F
S11319A0338322838ECFF80186809780C4010E94FE
S11319B0030A9A838983892B61F6B4018AEE91E044
S11319C00E94B70AC6CF1A966D917C911B97AE01FF
S11319D04F5F5F4F16968D919C910E942A0A009743
S11319E009F4B7CFBC018AEE91E00E94DE0AB1CFC0
S11319F0F801808591850E94400CABCF1496ED913F
S1131A00FC910995A6CF15821482B6CFCF93DF93AC
S1131A10DB01ED91FC91A481B581A230B10568F59B
S1131A2037832683119711F5EC012A813B81A88124
S1131A30B98112968D919C91B901641B750B68173D
S1131A40790768F0480F591F5383428384E090E07C
S1131A509583848390E080E0DF91CF910895415095
S1131A605109480F591F421B530BEECF22E030E0BF
S1131A70358324830E94200CEDCF87E090E0ECCFE7
S1131A80FB01DC0112964D915C9162817381A4810A
S1131A90B58112968D919C91029719F4CF010C9403
S1131AA08800CF010C94D000CB01DB0112966D911C
S1131AB07C9113971496ED91FC912281338122300D
S1131AC0310511F40C94A8000C94C800DC011296A2
S1131AD06D917C911397ED91FC9140815181DB01D3
S1131AE0ED91FC91228933892115310519F04217B2
S1131AF0530729F4DB01ED93FC930C94A800F9013E
S1131B00F1CFCF93DF9300D0CDB7DEB7BE016F5FC7
S1131B107F4F8AEE91E00E940E0BBC0189819A816D
S1131B200E94540D0F900F90DF91CF910895F89477
S1131B30FFCFEEE208958F939F9381E00E94AB0D57
S1131B409F918F9118958F939F9380E00E94AB0D86
S1131B509F918F9118951F920F920FB60F92112497
S1131B602F933F934F935F936F937F93AF93BF9361
S1131B70EF93FF930E94470AFF91EF91BF91AF91BA
S1131B807F916F915F914F913F912F910F900FBE75
S1131B900F901F900895A1E21A2EAA1BBB1BFD01F2
S1131BA00DC0AA1FBB1FEE1FFF1FA217B307E40738
S1131BB0F50720F0A21BB30BE40BF50B661F771F90
S1131BC0881F991F1A9469F7609570958095909570
S1131BD09B01AC01BD01CF010895EE0FFF1F0590DD
S1131BE0F491E02D0994AEE0B0E0E9EFFDE00C944F
S1131BF0AB108C01FA0186E08C831A83098377FF8A
S1131C0002C060E070E8615071097E836D83A901B0
S1131C10BF01CE0101960E941F0E4D815E8157FDCA
S1131C200AC02F813885421753070CF49A01020F1A
S1131C30131FF80110822E96E4E00C94C710ABE059
S1131C40B0E0E5E2FEE00C949D107C013B018A01CA
S1131C50FC0117821682838181FFC8C1CE010196DF
S1131C605C01F7019381F30193FD859193FF8191C9
S1131C703F01882309F453C1853239F493FD8591DA
S1131C8093FF81913F01853229F4B70190E00E94CE
S1131C900F10E7CF912C212C312CFFE1F31538F0F4
S1131CA08B3211F190F4803209F1833229F137FC3F
S1131CB03CC020ED280F2A3050F536FE20C08AE0C3
S1131CC0989E200D1124922E06C08D3291F08033FF
S1131CD071F7689430F8F30193FD859193FF819136
S1131CE03F018111DACF21C0689431F8689432F849
S1131CF0F2CF689433F8EFCF689434F8ECCFEAE08D
S1131D002E9E200D1124222E689435F8E4CF8E32B5
S1131D1029F436FC04C1689436F8DDCF8C3619F406
S1131D20689437F8D8CF8836B1F2982F9F7D9554B0
S1131D309330E0F08336A1F18337C1F1833509F0A4
S1131D4063C02801F2E04F0E511CF801C080D1801D
S1131D50692D70E036FC02C06FEF7FEFC6010E9470
S1131D60F90F4C01689437F882010AC00C5F1F4FC9
S1131D70FFE3F98388248394912C6501E89437F870
S1131D8033FE2DC0522C8114910471F5552009F4B1
S1131D9068CFB70180E290E00E940F105A94F6CF0A
S1131DA0F801808189830E5F1F4FE4CF2801F2E0A0
S1131DB04F0E511CF801C080D180692D70E036FCB3
S1131DC002C06FEF7FEFC6010E9404104C01820134
S1131DD0D5CFB70180E290E00E940F102A94281416
S1131DE0190409F0B0F7CECFF60137FC859137FE20
S1131DF081916F01B70190E00E940F1051105A9425
S1131E00F1E08F1A9108BFCF843619F0893609F0B2
S1131E1077C0F80137FE6BC0608171818281938144
S1131E200C5F1F4FF32DFF763F2E97FF09C090954F
S1131E308095709561957F4F8F4F9F4F689437F8C9
S1131E402AE030E0A5010E943F10C82ECA188C2C4D
S1131E50432C36FE0CC0E89440F8C91440F434FE18
S1131E6005C032FC03C0F32DFE7E4F2E892C44FEA8
S1131E7095C0FE01EC0DF11D8081803309F087C00F
S1131E80242D297E422E842D8870582E43FC95C023
S1131E9040FE8FC09C2C821418F42C0C922C9818A1
S1131EA044FE91C0B70180E390E00E940F1042FE0F
S1131EB009C088E790E041FE02C088E590E0B701E0
S1131EC00E940F10C91408F48AC0CA94D12C9FEF41
S1131ED0C91AD90ACA0CDB1CF60182916F01B70139
S1131EE090E00E940F10AC14BD04B1F74FCF608195
S1131EF07181072E000C880B990B0E5F1F4F92CF38
S1131F00D32CE894D4F82AE030E0853739F1232D36
S1131F10297FD22E8F3601F148F48835A9F0F701D4
S1131F20868197812B96E2E10C94B910803749F0B1
S1131F308837A9F7D4FE02C06894D2F820E130E0D3
S1131F400DC06894D4F8F6CF34FE03C0822F8660A7
S1131F50D82E20E132E002C028E030E0F801D7FEBC
S1131F600FC060817181828193810C5F1F4FA50135
S1131F700E943F10C82ECA183D2CE89437F867CF4A
S1131F806081718190E080E00E5F1F4FF0CF42FCD2
S1131F9002C0839478CF8394839475CF842D8678FC
S1131FA009F471CFF6CFB70180E290E00E940F10E0
S1131FB083948214C0F3512C73CF522C581882147A
S1131FC008F46ECFF8CF842D867809F47BCF8BE2AA
S1131FD041FE80E247FC8DE2B70190E071CFB7018A
S1131FE080E390E00E940F109A946CCF8FEF9FEFE4
S1131FF099CFFC010590615070400110D8F780958D
S113200090958E0F9F1F0895FC01615070400190C0
S11320100110D8F7809590958E0F9F1F08950F9308
S11320201F93CF93DF93182F092FEB018B8181FD31
S113203009C01FEF0FEF812F902FDF91CF911F91D8
S11320400F91089582FF14C02E813F818C819D8160
S1132050281739073CF4E881F981CF010196998367
S1132060888310838E819F8101969F838E83E3CF23
S1132070E885F985812F0995892BA1F3DACFFA0137
S1132080AA27283051F1203181F1E8946F936E7FB3
S11320906E5F7F4F8F4F9F4FAF4FB1E03ED0B4E0A4
S11320A03CD0670F781F891F9A1FA11D680F791FE5
S11320B08A1F911DA11D6A0F711D811D911DA11DF6
S11320C020D009F468943F912AE0269F1124301906
S11320D0305D3193DEF6CF010895462F4770405DA1
S11320E04193B3E00FD0C9F7F6CF462F4F70405D50
S11320F04A3318F0495D31FD4052419302D0A9F7AB
S1132100EACFB4E0A6959795879577956795BA95A4
S1132110C9F700976105710508959B01AC010A2E6A
S113212006945795479537952795BA95C9F7620F41
S1132130731F841F951FA01D08952F923F924F92E5
S11321405F926F927F928F929F92AF92BF92CF9243
S1132150DF92EF92FF920F931F93CF93DF93CDB74C
S1132160DEB7CA1BDB0B0FB6F894DEBF0FBECDBFC4
S113217009942A88398848885F846E847D848C8495
S11321809B84AA84B984C884DF80EE80FD800C819E
S11321901B81AA81B981CE0FD11D0FB6F894DEBF81
S10F21A00FBECDBFED010895F894FFCFF1
S11321ACFCFFFFFF016D020000170100000000FF9F
S11321BC000000000000001B0100001F01000023B0
S11321CC010000000000000080000000000000007E
S11321DC000000008000000000000000000000006F
S11321EC01000000000000000000000002000000DC
S11321FC00000000000000010004000000000000CA
S113220C000000C004000001000000006C0227075D
S113221CFA00FD0052504D203A20256400456D65AE
S113222C7267656E6379005B456D657267656E6395
S113223C795D004E4F524D00454D5247000A2534EE
S113224C6C643A20000A25346C643A205B25735D77
S113225C2052504D203D202564003C425554544F8F
S113226C4E204953523E000A2E2E2E2E2E2E2E2E4A
S113227C2E2E2E2E2E2E2E0A002E2E2E4F53205363
S113228C74617274732E2E2E0A0067052B020500DE
S113229C260201001E0201000E02010005016D025E
S11322AC04020100080201001002050001001002E2
S11322BCB0022002000051020000000000002002C5
S11322CCB8027F0001002802BC020235024302510D
S11322DC025F026D027F0265012701000200B80251
S11322EC8080017F026501330101020019038080A3
S11322FC017F0265013F0102000072020101017BB2
S113230C0263014B010301008F020202017F02658B
S113231C0157010403003509000001C10200020049
S113232C00000000000000F3052707A205D3057484
S109233C058E058005007A
S9030000FC
