:100000000C94B6000C94DE000C94DE000C94DE0020
:100010000C94DE000C94DE000C94DE000C94DE00E8
:100020000C94DE000C94DE000C94DE000C94560A56
:100030000C94DE000C94DE000C94DE000C94DE00C8
:100040000C9461020C94DE000C9420040C94520475
:100050000C94DE000C94DE000C94DE000C94DE00A8
:100060000C94DE000C94DE006E616E00696E66001A
:1000700000407A10F35A00A0724E18090010A5D45F
:10008000E80000E87648170000E40B54020000CABC
:100090009A3B000000E1F505000080969800000002
:1000A00040420F000000A086010000001027000061
:1000B0000000E803000000006400000000000A00E7
:1000C000000000000100000000002C76D888DC67EA
:1000D0004F0823DFC1DFAE59E1B1B796E5E3E45342
:1000E000C63AE651997696E8E6C28426EB898C9B5F
:1000F00062ED407C6FFCEFBC9C9F40F2BAA56FA5FF
:10010000F490055A2AF75C936B6CF9676DC11BFC80
:10011000E0E40D47FEF520E6B500D0ED902E03009B
:10012000943577050080841E080000204E0A0000E8
:1001300000C80C333333330F986E12831141EF8DA7
:100140002114893BE65516CFFEE6DB18D1844B38E7
:100150001BF77C1D901DA4BBE424203284725E2218
:100160008100C9F124ECA1E53D27780411241FBECC
:10017000CFEFD8E0DEBFCDBF12E0A0E0B1E0E0ED10
:10018000FFE102C005900D92A235B107D9F725E035
:10019000A2E5B2E001C01D92AA30B207E1F710E07B
:1001A000C6EBD0E004C02197FE010E94380EC53B8B
:1001B000D107C9F70E943F020C94E60F0C94520A33
:1001C0002F923F924F925F926F927F928F929F9267
:1001D000AF92BF92CF92DF92EF92FF920F931F9355
:1001E000CF93DF93E42FF52F419050804F925F9291
:1001F000E42FF52F4DB65EB6419250820C9400016B
:10020000E62FF72F419050804DBE5EBE5F904F901D
:10021000E62FF72F41925082DF91CF911F910F91DE
:10022000FF90EF90DF90CF90BF90AF909F908F9016
:100230007F906F905F904F903F902F900C94F305BC
:10024000E62FF72F419150814DBF5EBF0C94FC0506
:100250002F923F924F925F926F927F928F929F92D6
:10026000AF92BF92CF92DF92EF92FF920F931F93C4
:10027000CF93DF93E42FF52F419050804F925F9200
:10028000E42FF52F4DB65EB6419250820C942001BA
:10029000E82FF92F419150814DBF5EBFE62FF72F18
:1002A0000994000086E591E09F938F930E940702D6
:1002B00060ED77E080E090E00E94BF0186E691E08B
:1002C0009F938F930E9407020F900F900F900F90B3
:1002D0000C94880588E791E09F938F930E94070212
:1002E00068EB7BE080E090E00E94BF0188E891E04D
:1002F0009F938F930E9407020F900F900F900F9083
:100300000C94880580E00E94C405809100019091C2
:100310000101A0910201B0910301AC01BD014F5F49
:100320005F4F6F4F7F4F40930001509301016093E7
:10033000020170930301BF93AF939F938F938AE958
:1003400091E09F938F930E9407020F900F900F9060
:100350000F900F900F908091000190910101A0915A
:100360000201B09103010597A105B10539F444E1FB
:1003700050E061E070E080E00C94A20508954F9297
:100380005F926F927F928F929F92AF92BF92CF9225
:10039000DF92EF92FF926B017C010E94AB024B0156
:1003A0005C010E94AB02C701B60124E130E040E0ED
:1003B00050E00E94DF0D29013A01C12CD12C7601B9
:1003C0004C145D046E047F04A9F00E94AB0268190E
:1003D00079098A099B09643171058105910580F3CA
:1003E0008FEFC81AD80AE80AF80A0E94AB024B013C
:1003F0005C01E6CFFF90EF90DF90CF90BF90AF9081
:100400009F908F907F906F905F904F900895CF93C3
:10041000DF93CDB7DEB7C058D1090FB6F894DEBF71
:100420000FBECDBF9E012B573F4FF9014191519116
:100430009F0160E870E0CE0101960E945C0FBE0152
:100440006F5F7F4F8CE694E00E94E104C058DF4F5D
:100450000FB6F894DEBF0FBECDBFDF91CF910895E8
:1004600026E040E855E260E070E08CE694E00E940F
:10047000BE0360E472E48FE090E00C94E9040E9413
:10048000B7020E94300282EA91E09F938F930E940C
:10049000070284EB91E09F938F930E94070283EA07
:1004A00091E09F938F930E94070280E00E9447058E
:1004B0000F900F900F900F900F900F9090E080E0B2
:1004C00008951F920F920FB60F9211242F933F930E
:1004D0008F939F93AF93BF93809164049091650431
:1004E000A0916604B09167043091630423E0230F68
:1004F0002D3758F50196A11DB11D209363048093FB
:10050000640490936504A0936604B093670480919B
:10051000680490916904A0916A04B0916B040196FB
:10052000A11DB11D8093680490936904A0936A048F
:10053000B0936B04BF91AF919F918F913F912F9199
:100540000F900FBE0F901F90189526E8230F02966C
:10055000A11DB11DD2CF2FB7F894609164047091A2
:10056000650480916604909167042FBF0895789484
:1005700084B5826084BD84B5816084BD85B58260A8
:1005800085BD85B5816085BDEEE6F0E08081816046
:100590008083E1E8F0E01082808182608083808146
:1005A00081608083E0E8F0E0808181608083E1EB1E
:1005B000F0E0808184608083E0EBF0E08081816006
:1005C0008083EAE7F0E080818460808380818260BC
:1005D00080838081816080838081806880831092A5
:1005E000C1000895FC01918D228D892F90E0805CDF
:1005F0009F4F821B91098F7399270895FC01918D5C
:10060000828D981731F0828DE80FF11D858D90E075
:1006100008958FEF9FEF0895FC01918D828D9817BB
:1006200061F0A28DAE0FBF2FB11D5D968C91928DA2
:100630009F5F9F73928F90E008958FEF9FEF0895D3
:10064000FC01538D448D252F30E0842F90E0821BD8
:10065000930B541710F0CF96089501970895FC015D
:10066000A48DA80FB92FB11DA35ABF4F2C91848D13
:1006700090E001968F739927848FA689B7892C9370
:10068000A089B1898C91837080648C93938D848DC3
:10069000981306C00288F389E02D80818F7D8083C6
:1006A0000895CF93DF93EC01888D8823B9F0AA8950
:1006B000BB89E889F9898C9185FD03C0808186FD1D
:1006C0000DC00FB607FCF7CF8C9185FFF2CF80816C
:1006D00085FFEDCFCE010E942F03E9CFDF91CF91AF
:1006E0000895EF92FF920F931F93CF93DF93EC0146
:1006F00081E0888F9B8D8C8D98131AC0E889F989C9
:10070000808185FF15C09FB7F894EE89FF896083CB
:10071000E889F98980818370806480839FBF81E04C
:1007200090E0DF91CF911F910F91FF90EF9008958E
:10073000F62E0B8D10E00F5F1F4F0F731127E02E69
:100740008C8D8E110CC00FB607FCFACFE889F989A1
:10075000808185FFF5CFCE010E942F03F1CFEB8D75
:10076000EC0FFD2FF11DE35AFF4FF0829FB7F89475
:100770000B8FEA89FB8980818062CFCFCF92DF9295
:10078000EF92FF921F93CF93DF93EC016A017B01FD
:10079000122FE889F98982E08083C11481EED8069E
:1007A000E104F104A1F060E079E08DE390E0A701BD
:1007B00096010E94DF0D21503109410951095695DA
:1007C000479537952795211580E1380798F0E889F6
:1007D000F989108260E874E88EE190E0A701960143
:1007E0000E94DF0D21503109410951095695479565
:1007F00037952795EC85FD853083EE85FF85208331
:10080000188EEC89FD891083EA89FB8980818061DB
:100810008083EA89FB89808188608083EA89FB89FB
:10082000808180688083EA89FB8980818F7D8083D5
:10083000DF91CF911F91FF90EF90DF90CF900895BF
:100840001F920F920FB60F9211242F938F939F93A5
:10085000EF93FF93E0917C04F0917D048081E0911F
:100860008204F091830482FD1BC0908180918504F5
:100870008F5F8F7320918604821741F0E091850489
:10088000F0E0E459FB4F958F80938504FF91EF9141
:100890009F918F912F910F900FBE0F901F901895E1
:1008A0008081F4CF1F920F920FB60F9211242F93D5
:1008B0003F934F935F936F937F938F939F93AF93E8
:1008C000BF93EF93FF938CE694E00E942F03FF9178
:1008D000EF91BF91AF919F918F917F916F915F91B8
:1008E0004F913F912F910F900FBE0F901F90189531
:1008F000ECE6F4E01382128288EE93E0A0E0B0E030
:1009000084839583A683B78384E492E09183808374
:1009100085EC90E09587848784EC90E097878687C4
:1009200080EC90E0918B808B81EC90E0938B828BBC
:1009300082EC90E0958B848B86EC90E0978B868B95
:10094000118E128E138E148E0895AF92BF92CF9295
:10095000DF92EF92FF920F931F93CF93DF936C017F
:100960007B018B01040F151FEB015E01AE18BF0860
:10097000C017D10759F06991D601ED91FC91019012
:10098000F081E02DC6010995892B79F7C501DF912A
:10099000CF911F910F91FF90EF90DF90CF90BF907C
:1009A000AF900895FB0101900020E9F73197AF0166
:1009B000461B570BDC01ED91FC910280F381E02D89
:1009C00009946115710511F00C94D20490E080E057
:1009D000089510928100109280001092820010926F
:1009E000850010928400611520E172078105910550
:1009F000A0F4E4E0660F771FEA95E1F76150710912
:100A000081E092E096BB90936F00709389006093B1
:100A100088008860809381000895611520E872073E
:100A20008105910530F4660F771F6150710982E0EE
:100A3000E8CF6C3F2FEF720723E08207910558F44F
:100A400042E096958795779567954A95D1F76150DD
:100A5000710983E0D6CF6115710520E18207910508
:100A600058F434E096958795779567953A95D1F740
:100A70006150710984E0C5CF26E0969587957795FA
:100A800067952A95D1F76150710985E0BACF0F9328
:100A90001F93CF93DF9300D0CDB7DEB7E091D7019E
:100AA000F091D8019FB7F89420853185232B51F020
:100AB0009FBF81E090E00F900F90DF91CF911F9149
:100AC0000F91089524E53AE03A8329830091D901F2
:100AD0001091DA0121E030E031872087828780851C
:100AE0009185019721F482E090E09187808780854D
:100AF0009185029751F4F80162817381AB01C801BD
:100B00000E942801C8010E94280790E080E0D3CF0E
:100B1000E091D701F091D801A081B1818785882328
:100B200019F0178685858FBF8189882311F0118A76
:100B300078948FB7F8946CE37AE012968D919C913B
:100B40000E944801CF9390E02091D5013091D601C9
:100B500082179307B0F49A01AB01E091D301F091B1
:100B6000D401880F991FE80FF91F60817181FB0183
:100B700082819381CFB7F8940E94C109CFBFCF91F2
:100B8000089583E090E0FBCFCF9390E02091D101D6
:100B90003091D2018217930718F52091CF0130913F
:100BA000D001880F991F820F931FFC0180819181D2
:100BB000CFB7F8940E94FB08E091D701F091D801DB
:100BC0000190F081E02D87819085029720F485ECDB
:100BD00091E00E943508CFBF90E080E0CF9108956A
:100BE00083E090E0FBCFDC011496ED91FC9184E072
:100BF00090E0938382830895EC01EC81FD818181F3
:100C000024E030E0338322838F3F09F07894E98534
:100C1000FA850995E091D701F091D801108A87856E
:100C2000882319F0178685858FBF8189882311F065
:100C3000118A78948FB7F8948F819885EC81FD8123
:100C4000029709F5A481B581109731F46CE37AE03D
:100C50008A819B810E9448010D90BC91A02D149621
:100C60001C921E9213978D919C9195838483EACF59
:100C70000D90BC91A02D14961C921E9213978D91ED
:100C80009C9195838483A481B581109789F7DECFE9
:100C9000E091D701F091D801808591850297E1F329
:100CA0008091D9019091DA010C94210A0F931F933E
:100CB000CF93DF93EC01A881B981EB01E881F98141
:100CC0001696CD91DC9117972097C1F18A819B816F
:100CD000309709F43FC0EC010C811D8122813381E2
:100CE000E9014C815D81E8013981EA0129813217EE
:100CF00088F522E030E0E8013B832A8320813181BE
:100D0000EB0139832883C281D3812C813D811696E2
:100D10004D915C911797518340831796FC93EE9306
:100D20001697CD93DC934C85F9015181541708F443
:100D30004183DF91CF911F910F910895309751F02A
:100D4000EC018A819B81EC014C815D8122E030E0E5
:100D5000EA01D2CF90E080E0ECCFCF93DF93DB01CC
:100D60001296ED91FC9141155105A1F02385DC010E
:100D7000ED91FC91B0E0A0E0309789F4109709F173
:100D80006D937C9390E080E0DB01ED93FC93DF9129
:100D9000CF9108950480F581E02D2181E8CFC281B3
:100DA000D3814115510541F03B85321738F3DF01FE
:100DB0000190F081E02DE0CF0C80DD81C02D3981E4
:100DC000F4CFDC016D937C9381E090E0DDCFFB01FB
:100DD0005383428341E050E00C94AD06EF92FF92C2
:100DE0000F931F93CF93DF938C01FC01C081D181BE
:100DF000EE80FF80F701808191819F838E83C801FF
:100E00000E945606892B41F4EE81FF81309761F0F4
:100E10008281938199838883C701DF91CF911F914C
:100E20000F91FF90EF900895F801F2CFDC01149636
:100E3000ED91FC91159790811D968C91981728F44F
:100E40009F5F908390E080E0089584E090E00895B3
:100E5000DC011496ED91FC9115971B968C91818382
:100E6000808181508083811103C013821282089592
:100E700081E090E0938382830895DC011496ED91E4
:100E8000FC9180859185862B972B91878087DA014D
:100E90001D921C928681978168237923672B39F0F4
:100EA00082859385009729F013861286089590E035
:100EB00080E00895E091C701F091C80190E0880FAB
:100EC000991FE80FF91F60817181DB011496ED9184
:100ED000FC9180818F5F808350E040E085EC91E061
:100EE0000C945008AB01FB01A481B581E091D701BE
:100EF000F091D80112968D919C911397892B51F402
:100F000081E090E013969C938E93129719961C9211
:100F10001E921897A481B5818D919C91119795830C
:100F2000848311961C921E92BD01CF0102960C94EF
:100F3000E7060F931F93CF93DF93DB0112964D913A
:100F40005C91FA01C481D5810091D7011091D8013B
:100F500082E090E09B838A8383858983C80102961F
:100F60000E94E706019791F4D801ED91FC9104806D
:100F7000F581E02D81E090E039812181231708F08F
:100F800080E0DF91CF911F910F91089580E090E074
:100F9000F8CFAF92BF92CF92DF92EF92FF920F9372
:100FA0001F93CF93DF93C091D701D091D801FE0159
:100FB000E190F1906F01F70104811581FB01F1824D
:100FC000E082F80182819381049731F5B60187EDC3
:100FD00091E00E94EE065C01C880D980EC14FD040B
:100FE000B1F0C7010E9428078C819D81F501918392
:100FF0008083BD82AC82C601DF91CF911F910F919A
:10100000FF90EF90DF90CF90BF90AF900895F801E0
:10101000808181508083E8CF6E817F81FB01808158
:1010200091819F838E83F7018385F801818381E01D
:1010300090E0938382838081813011F41186108641
:10104000A701C6010E94E706B60187ED91E00E9464
:101050005606892B39F4EE81FF81C280D380D98274
:10106000C882C9CFC880D980C6CFCF93DF93C09143
:10107000D701D091D801BE016E5F7F4F87ED91E01F
:101080000E945606009749F0688179810E94FB0909
:1010900081E090E0DF91CF91089590E080E0FACF79
:1010A000CF93DF93E091D701F091D80180819181B6
:1010B00026813781EC01AC81BD811296CD91DC9106
:1010C0001397249731F4C2E0D0E01396DC93CE93CB
:1010D00012977183608341155105B9F4A481B581DC
:1010E0004D915C9111975583448311961C921E92E9
:1010F000B783A6830680F781E02D738362833183F3
:101100002083DF91CF910C94FB0957834683F2CF64
:10111000AF92BF92CF92DF92EF92FF920F931F9305
:10112000CF93DF93DC01AD90BC90E501E881F981BC
:101130002A813B81DB01CD90DC90E6015B834A8311
:1011400081E090E0B0E0A0E0309711F00097A9F4C2
:10115000109779F10D90BC91A02D6D937C93E601D1
:10116000F983E883DF91CF911F910F91FF90EF906A
:10117000DF90CF90BF90AF90089500811181E8017A
:10118000EA80FB802E153F0558F44E155F0518F4D4
:101190002417350758F0DF01E801E881F981D4CF41
:1011A0002417350718F04E155F05A8F790E080E08A
:1011B000CBCFD501D2CFCF93DF93DC011296ED9147
:1011C000FC9113970D90BC91A02D12962D913C91FE
:1011D000DF01A41BB50BA217B30730F0420F531F5A
:1011E000DF91CF910C94880841505109420F531F51
:1011F0004E1B5F0BF5CF8F929F92AF92BF92CF9213
:10120000DF92EF92FF920F931F93CF93DF9300D063
:10121000CDB7DEB7DC01CD90DC901197F6012281CD
:10122000338112964D915C912417350708F471C0F3
:101230001382128230E020E0F60100811181011555
:10124000110509F457C0D801ED91FC911197428125
:1012500053814217530709F04DC023E0E22EF12CD1
:101260002D913C91F901F582E482A081B181109722
:1012700049F06D917C911197FB0162817381461752
:10128000570771F37C01F90111821082F601B183D5
:10129000A08382E0C82ED12CD801ED91FC9111974A
:1012A000A080B1801A8219821C968D919C911D9705
:1012B0008130910509F442C088F18230910509F42A
:1012C00052C0039709F455C0D801ED91FC91848177
:1012D0009581039761F4468157814115510509F4C1
:1012E0004DC0D582C482B801C7010E94DB088501C8
:1012F000AB2891F60F900F90DF91CF911F910F9136
:10130000FF90EF90DF90CF90BF90AF909F908F9025
:1013100008952F5F3F4F338322838ECFF80186805D
:101320009780C4010E9416079A838983892B61F6EE
:10133000B40185EC91E00E947207C6CF1A966D91B8
:101340007C911B97AE014F5F5F4F16968D919C91DC
:101350000E943D07009709F4B7CFBC0185EC91E0EE
:101360000E949907B1CFF801808591850E94FB0802
:10137000ABCF1496ED91FC910995A6CF15821482FE
:10138000B6CFCF93DF93DB01ED91FC91A481B581C2
:10139000A230B10568F537832683119711F5EC016A
:1013A0002A813B81A881B98112968D919C91B901C6
:1013B000641B750B6817790768F0480F591F538332
:1013C000428384E090E09583848390E080E0DF9125
:1013D000CF91089541505109480F591F421B530B9B
:1013E000EECF22E030E0358324830E94DB08EDCF8E
:1013F00087E090E0ECCFFB01DC0112964D915C910F
:1014000062817381A481B58112968D919C9102971E
:1014100019F4CF010C94E000CF010C942801CB010A
:10142000DB0112966D917C9113971496ED91FC91CE
:10143000228133812230310511F40C9400010C9487
:101440002001DC0112966D917C911397ED91FC9136
:1014500040815181DB01ED91FC9122893389211575
:10146000310519F04217530729F4DB01ED93FC9382
:101470000C940001F901F1CFCF93DF9300D0CDB7E9
:10148000DEB7BE016F5F7F4F85EC91E00E94C90718
:10149000BC0189819A810E940F0A0F900F90DF9101
:1014A000CF910895F894FFCFE4EA08958F939F9326
:1014B00080E00E945E0A9F918F9118951F920F9273
:1014C0000FB60F9211242F933F934F935F936F9317
:1014D0007F93AF93BF93EF93FF930E945A07FF91BF
:1014E000EF91BF91AF917F916F915F914F913F913C
:1014F0002F910F900FBE0F901F900895AFE0B0E0B6
:10150000E4E8FAE00C94010E6C011B015A01FC01A5
:1015100017821682838181FF48C39E012F5F3F4F50
:101520004901F6019381F10193FD859193FF81912A
:101530001F01882309F4E7C2853239F493FD8591B0
:1015400093FF81911F01853239F4B60190E00E942A
:101550002C0F35015301E5CFF12C512C00E0003266
:1015600038F48B3209F190F48032F9F0833209F1CA
:1015700007FD34C020ED280F2A3020F506FF1BC0E0
:10158000FAE0FF9E200D1124F22E05C08D3279F075
:10159000803371F70160F10193FD859193FF819193
:1015A0001F018111DCCF1AC002600460F4CF086013
:1015B000F2CF0061F0CF3AE0539E200D1124522E5D
:1015C0000062E9CF8E3221F406FD9DC20064E3CFB4
:1015D0008C3611F40068DFCF8836E9F29BEB980F68
:1015E000933008F05FC00061805E06FD02C046E0F7
:1015F000F42E102F1F73853609F05BC0106417FF9F
:1016000061C08F2D9BE39F1508F48BE34424439422
:10161000480E27E03501F4E06F0E711CF501608182
:10162000718182819381042DA4010E943E0E5C0190
:10163000F981FC87F0FF03C00DE2F3FF07C00BE266
:1016400011FD04C0012F047012FD00E22C852C70E6
:10165000E22E09F457C00111ABC2F3E0E12CF515FD
:10166000A0F483E0E52CE81A13FD08C0B60180E27F
:1016700090E00E942C0FEA94E110F8CF002329F0AB
:10168000B601802F90E00E942C0F3C8528E6A22E08
:1016900020E0B22E33FD04C09CE6A92E90E0B92EC6
:1016A000107122C09BE9980F933008F033C10F7E70
:1016B0009CCF863611F41068A2CFFF2009F49FCF8B
:1016C000FA949DCFE7E02F2DEF1518F427E037E0CF
:1016D000F32E412C9FCF11118052B60190E00E9451
:1016E0002C0F8FEFA81AB80AF50184918111F3CF5E
:1016F000EE2009F42FCFB60180E290E00E942C0F7B
:10170000EA94F6CF17FF6FC04A0CFC85F4FF04C0C3
:101710008A81813309F44A9414140CF086C028E0BD
:10172000241510F488E0482E85E090E017FF06C0ED
:10173000C501B7FE02C090E080E00196011101965C
:10174000FF2031F02F2D30E02F5F3F4F820F931F8E
:101750005816190619F014F0E52CE81A812F897033
:1017600011F4E11067C0002329F0B601802F90E04A
:101770000E942C0F13FD02C0E11063C017FF7CC054
:101780008501B7FE02C010E000E0C501841991098F
:101790002C016F2D70E0EE27FF27E61BF70BFF876C
:1017A000EE870F3F100729F4B6018EE290E00E9409
:1017B0002C0FA016B1060CF44BC0401651060CF0CD
:1017C00047C0F501E01BF10BE80DF91D81810150C7
:1017D00011092E853F8502171307E4F1B60190E049
:1017E0000E942C0FDECF16FD9FCFEF2DF0E0EA1503
:1017F000FB0534F03CEFA3163FEFB3060CF0106886
:101800003296E80DF91D01C0FA94FF2019F082917B
:101810008033D1F317FF88CF442443944F0CFA143C
:101820001B0431F02CF0FA187FCF442443947CCF72
:10183000F12C7ACFB60180E290E00E942C0FEA945E
:1018400090CFB60180E390E00E942C0FEA9494CFF1
:1018500080E3BDCFA016B10641F49A81963350F4CF
:10186000953319F43C8534FF05C0B60190E00E9421
:101870002C0F3ECF81E3F9CF8A81813319F09C850B
:101880009F7E9C87B60190E00E942C0FFF20A9F05C
:10189000B6018EE290E00E942C0FF394F394E2E004
:1018A00001E00E0FE80DF92DF11D8081B60190E0E9
:1018B0000E942C0FE02F0F11F3CF85E690E014FF6C
:1018C00002C085E490E0B6010E942C0FB7FC06C070
:1018D000A114B104C1F4EC85E4FF15C0B194A19446
:1018E000B1088DE2B60190E00E942C0F80E32AE05F
:1018F000A216B10454F4B60190E00E942C0FB60178
:10190000C501C096B4CF8BE2EDCF8F5FFAE0AF1A7E
:10191000B108EDCF8336C9F0833771F1833509F013
:101920005BC03501F2E06F0E711CF501A080B18043
:101930006F2D70E006FD02C06FEF7FEFC5010E94C2
:10194000160F9D878C8700680DC0350132E0630E4D
:10195000711CF5018081898321E030E03D872C876F
:1019600054010F7703FD06C02C853D8552161306E2
:1019700009F0A8F4E52C2BC0350132E0630E711C90
:10198000F501A080B1806F2D70E006FD02C06FEF01
:101990007FEFC5010E94210F9D878C87E2CFB601A2
:1019A00080E290E00E942C0F5A94DECFF50107FDF3
:1019B000859107FF81915F01B60190E00E942C0F95
:1019C000E110EA948C859D8501979D878C87EC8535
:1019D000FD85EF2B59F78CCE843619F0893609F046
:1019E00074C0350107FF66C0F4E06F0E711CF5018D
:1019F0006081718182819381102F1F7697FF08C0CB
:101A000090958095709561957F4F8F4F9F4F10688F
:101A10002AE030E0A4010E94880FA82EA818BA2C52
:101A2000012F16FF0AC00E7FAF1438F414FF04C054
:101A300012FD02C0012F0E7EBF2C04FF8EC0FE01DE
:101A4000EA0DF11D8081803309F080C0097EF02FFE
:101A5000F870EF2E03FD90C000FF8AC0FA2CB51479
:101A600010F4F50CFB1804FF8DC0B60180E390E084
:101A70000E942C0F02FF09C088E790E001FF02C01E
:101A800088E590E0B6010E942C0FAF1408F486C0E0
:101A9000AA940A2D10E00F5F1F4F080D191DF801C1
:101AA00082918F01B60190E00E942C0F8016910662
:101AB000B1F71ECEF2E06F0E711CF50160817181ED
:101AC000072E000C880B990B97CF102F8537A9F4A0
:101AD0001F7E2AE030E0350117FF2FC0F4E06F0EC3
:101AE000711CF5016081718182819381A4010E9442
:101AF000880FA82EA8181F7792CF197F8F36D1F0A4
:101B000048F4883591F0F601868197812F96E2E1BD
:101B10000C941D0E803739F08837A9F714FD146036
:101B200020E130E0D8CF1061F9CF04FD166020E14C
:101B300032E0D1CF28E030E0CECFF2E06F0E711C62
:101B4000F5016081718190E080E0D0CF02FD02C09C
:101B5000B3947DCFB394B3947ACF802F867809F471
:101B600076CFF6CFB60180E290E00E942C0FB394BE
:101B7000B514C0F3E12C77CFE52CEB18B51408F4BD
:101B800072CFF8CF802F867809F47FCF8BE201FFE8
:101B900080E207FD8DE2B60190E075CFB60180E3EB
:101BA00090E00E942C0FFA9470CF8FEF9FEFAECF92
:101BB00024E0E12C251508F063CD84E053CDA1E2AB
:101BC0001A2EAA1BBB1BFD010DC0AA1FBB1FEE1FB7
:101BD000FF1FA217B307E407F50720F0A21BB30B02
:101BE000E40BF50B661F771F881F991F1A9469F77E
:101BF00060957095809590959B01AC01BD01CF01DA
:101C000008952F923F924F925F926F927F928F92A0
:101C10009F92AF92BF92CF92DF92EF92FF920F937B
:101C20001F93CF93DF93CDB7DEB7CA1BDB0B0FB685
:101C3000F894DEBF0FBECDBF09942A883988488842
:101C40005F846E847D848C849B84AA84B984C884D8
:101C5000DF80EE80FD800C811B81AA81B981CE0FCF
:101C6000D11D0FB6F894DEBF0FBECDBFED010895B4
:101C7000EE0FFF1F0590F491E02D0994283008F035
:101C800027E03327DA01990F311D87FD9160009617
:101C90006105710539F432602E5F3D9330E32A957A
:101CA000E1F708959F3F30F080387105610509F034
:101CB0003C5F3C5F3D93913008F08068911DDF935D
:101CC000CF931F930F93FF92EF92192F987F9695C2
:101CD000E92F96959695E90FFF27E653FF4F992731
:101CE0003327EE24FF24A701E70105900894079409
:101CF00028F4360FE71EF81E491F511D660F771F87
:101D0000881F991F0694A1F70590079428F4E70E01
:101D1000F81E491F561FC11D770F881F991F661F88
:101D20000694A1F70590079428F4F80E491F561F52
:101D3000C71FD11D880F991F661F771F0694A1F733
:101D40000590079420F4490F561FC71FD81F990FFD
:101D5000661F771F881F0694A9F784911095177046
:101D600041F0D695C79557954795F794E7941A95FE
:101D7000C1F7E0E7F0E06894159015913591659111
:101D8000959105907FE27395E118F10A430B560B8C
:101D9000C90BD009C0F7E10CF11E431F561FC91F24
:101DA000D01D7EF4703311F48A95E6CFE89401508B
:101DB00030F0080F0AF40027021708F4202F2395AB
:101DC000022F7A3328F079E37D932A95E9F710C042
:101DD0007D932A9589F6069497956795379517957B
:101DE0001794E118F10A430B560BC90BD00998F070
:101DF00023957E9173957A3308F070E37C932013DA
:101E0000B8F77E9170617D9330F0839571E37D9397
:101E100070E32A95E1F71124EF90FF900F911F9145
:101E2000CF91DF91992787FD90950895FC0105904A
:101E3000615070400110D8F7809590958E0F9F1FCC
:101E40000895FC016150704001900110D8F7809511
:101E500090958E0F9F1F08950F931F93CF93DF933D
:101E6000182F092FEB018B8181FD09C01FEF0FEFA8
:101E7000812F902FDF91CF911F910F91089582FFB5
:101E800014C02E813F818C819D81281739073CF435
:101E9000E881F981CF0101969983888310838E812F
:101EA0009F8101969F838E83E3CFE885F985812FFB
:101EB0000995892BA1F3DACFAEE0B0E0E2E6FFE0CE
:101EC0000C940F0E8C01FA0186E08C831A8309832F
:101ED00077FF02C060E070E8615071097E836D8316
:101EE000A901BF01CE0101960E947E0A4D815E814B
:101EF00057FD0AC02F813885421753070CF49A0109
:101F0000020F131FF80110822E96E4E00C942B0EA2
:101F1000FA01AA27283051F1203181F1E8946F931A
:101F20006E7F6E5F7F4F8F4F9F4FAF4FB1E03ED0C0
:101F3000B4E03CD0670F781F891F9A1FA11D680F5E
:101F4000791F8A1F911DA11D6A0F711D811D911D91
:101F5000A11D20D009F468943F912AE0269F112406
:101F60003019305D3193DEF6CF010895462F47706A
:101F7000405D4193B3E00FD0C9F7F6CF462F4F70C5
:101F8000405D4A3318F0495D31FD4052419302D023
:101F9000A9F7EACFB4E0A6959795879577956795C9
:101FA000BA95C9F700976105710508959B01AC01C9
:101FB0000A2E06945795479537952795BA95C9F7F0
:101FC000620F731F841F951FA01D0895F894FFCF03
:101FD000FCFFFFFF2A020000160100000000FF00C6
:101FE0000000000000001A0100001E0100000000B7
:101FF0000000008000000000000000000000000160
:1020000000000000000000000000000200000000CE
:1020100000000000000001000400000000000000BB
:102020000000620400005461736B312042656769EF
:102030006E732E2E2E005461736B312046696E69CB
:10204000736865732E2E2E005461736B32204265C7
:1020500067696E732E2E2E005461736B32204669B1
:102060006E69736865732E2E2E000A25346C643AEF
:1020700020000A2E2E2E2E2E2E2E2E2E2E2E2E2EE0
:102080002E2E0A002E2E2E4F53205374617274731D
:102090002E2E2E0A000905F8010400F3010100EBC1
:1020A000010100DB01010004012A02DD015202ED01
:1020B0000100000E02000000000000ED015A0211B4
:1020C000000100F5015E020200020E021C022A025B
:1020D0003C0254012201000200820180800138028A
:1020E00052012E0101010052010101013C02540183
:1020F0003A010200006A010202013C025401460159
:102100000303004806000001630200020000000013
:10211000000000007103A50420035103F2020C0328
:02212000FE02BD
:00000001FF
