S00F000061726475696E6F2E7372656323
S11300000C9435000C945D000C945D000C945D0020
S11300100C944E080C945D000C945D000C945D00EF
S11300200C945D000C945D000C945D000C945608D7
S11300300C945D000C945D000C945D000C945D00C8
S11300400C94F2010C945D000C94CC030C94FE030C
S11300500C945D000C945D000C945D000C945D00A8
S11300600C945D000C945D00240411241FBECFEF9A
S1130070D8E0DEBFCDBF12E0A0E0B1E0E2E1F7E1FD
S113008002C005900D92A036B107D9F723E0A0E68F
S1130090B2E001C01D92AE30B207E1F710E0C5E353
S11300A0D0E004C02197FE010E94A008C433D10708
S11300B0C9F70E94C6010C94870B0C944A080000EF
S11300C02F923F924F925F926F927F928F929F9264
S11300D0AF92BF92CF92DF92EF92FF920F931F9352
S11300E0CF93DF93E42FF52F419050804F925F928E
S11300F0E42FF52F4DB65EB6419250820C948000E9
S1130100E62FF72F419050804DBE5EBE5F904F901A
S1130110E62FF72F41925082DF91CF911F910F91DB
S1130120FF90EF90DF90CF90BF90AF909F908F9013
S11301307F906F905F904F903F902F900C94950517
S1130140E62FF72F419150814DBF5EBF0C949E0561
S11301502F923F924F925F926F927F928F929F92D3
S1130160AF92BF92CF92DF92EF92FF920F931F93C1
S1130170CF93DF93E42FF52F419050804F925F92FD
S1130180E42FF52F4DB65EB6419250820C94A00038
S1130190E82FF92F419150814DBF5EBFE62FF72F15
S11301A0099400008BE691E09F938F930E948E0147
S11301B068EB7BE080E090E00E9446018BE791E0F1
S11301C09F938F930E948E010F900F900F900F902A
S11301D00C947B058DE891E09F938F930E948E0190
S11301E068EB7BE080E090E00E9446018DE991E0BD
S11301F09F938F930E948E010F900F900F900F90FA
S11302000C947B058091000190910101A091020161
S1130210B0910301AC01BD014F5F5F4F6F4F7F4F42
S11302204093000150930101609302017093030114
S1130230BF93AF939F938F938FEA91E09F938F9394
S11302400E948E010F900F900F900F900F900F90BF
S113025008950E94F304309918C087EB91E09F93AE
S11302608F930E948E018EE00E9483020F900F9064
S1130270823391052CF482E00E9446050C94FB0421
S1130280883C9105DCF783E0F7CF08954F925F92A5
S11302906F927F928F929F92AF92BF92CF92DF9292
S11302A0EF92FF926B017C010E943C024B015C01C6
S11302B00E943C02C701B60124E130E040E050E076
S11302C00E947E0829013A01C12CD12C76014C14DC
S11302D05D046E047F04A9F00E943C026819790948
S11302E08A099B09643171058105910580F38FEFBB
S11302F0C81AD80AE80AF80A0E943C024B015C01B9
S1130300E6CFFF90EF90DF90CF90BF90AF909F909B
S11303108F907F906F905F904F900895CF93DF936D
S1130320CDB7DEB7C058D1090FB6F894DEBF0FBE03
S1130330CDBF9E012B573F4FF901419151919F0130
S113034060E870E0CE0101960E94A608BE016F5FCE
S11303507F4F80E792E00E948D04C058DF4F0FB6B4
S1130360F894DEBF0FBECDBFDF91CF91089526E094
S113037040E855E260E070E080E792E00E946A03A2
S113038060E472E48FE090E00C94950481E088B915
S113039092E09093680080936C008FEF8CBB78940C
S11303A00E9448020E94B70184EC91E09F938F93CE
S11303B00E948E0186ED91E09F938F930E948E019F
S11303C085EC91E09F938F930E948E0180E00E94C0
S11303D005050F900F900F900F900F900F9090E0E5
S11303E080E008951F920F920FB60F9211242F935D
S11303F03F938F939F93AF93BF93809168029091A3
S11304006902A0916A02B0916B023091670223E005
S1130410230F2D3758F50196A11DB11D20936702B6
S11304208093680290936902A0936A02B0936B026E
S113043080916C0290916D02A0916E02B0916F0256
S11304400196A11DB11D80936C0290936D02A0933F
S11304506E02B0936F02BF91AF919F918F913F91C4
S11304602F910F900FBE0F901F90189526E8230F21
S11304700296A11DB11DD2CF2FB7F89460916802E6
S11304807091690280916A0290916B022FBF089566
S1130490789484B5826084BD84B5816084BD85B55B
S11304A0826085BD85B5816085BDEEE6F0E0808122
S11304B081608083E1E8F0E0108280818260808343
S11304C0808181608083E0E8F0E0808181608083C6
S11304D0E1EBF0E0808184608083E0EBF0E08081F8
S11304E081608083EAE7F0E080818460808380819A
S11304F08260808380818160808380818068808342
S11305001092C10008958E3008F08E5020916A0137
S113051090E4299F900111248770822B80937C00A2
S113052080917A00806480937A0080917A0086FDBD
S1130530FCCF80917800909179000895FC01918D11
S1130540228D892F90E0805C9F4F821B91098F73CD
S113055099270895FC01918D828D981731F0828D31
S1130560E80FF11D858D90E008958FEF9FEF0895BA
S1130570FC01918D828D981761F0A28DAE0FBF2F73
S1130580B11D5D968C91928D9F5F9F73928F90E0C9
S113059008958FEF9FEF0895FC01538D448D252F0F
S11305A030E0842F90E0821B930B541710F0CF9609
S11305B0089501970895FC01A48DA80FB92FB11DCA
S11305C0A35ABF4F2C91848D90E001968F73992785
S11305D0848FA689B7892C93A089B1898C91837063
S11305E080648C93938D848D981306C00288F3895C
S11305F0E02D80818F7D80830895CF93DF93EC017C
S1130600888D8823B9F0AA89BB89E889F9898C91F6
S113061085FD03C0808186FD0DC00FB607FCF7CFB2
S11306208C9185FFF2CF808185FFEDCFCE010E94B2
S1130630DB02E9CFDF91CF910895EF92FF920F9300
S11306401F93CF93DF93EC0181E0888F9B8D8C8D7A
S113065098131AC0E889F989808185FF15C09FB76E
S1130660F894EE89FF896083E889F9898081837031
S1130670806480839FBF81E090E0DF91CF911F91E0
S11306800F91FF90EF900895F62E0B8D10E00F5F01
S11306901F4F0F731127E02E8C8D8E110CC00FB6D7
S11306A007FCFACFE889F989808185FFF5CFCE016F
S11306B00E94DB02F1CFEB8DEC0FFD2FF11DE35A0D
S11306C0FF4FF0829FB7F8940B8FEA89FB898081F2
S11306D08062CFCFCF92DF92EF92FF921F93CF939E
S11306E0DF93EC016A017B01122FE889F98982E02A
S11306F08083C11481EED806E104F104A1F060E026
S113070079E08DE390E0A70196010E947E082150D4
S11307103109410951095695479537952795211572
S113072080E1380798F0E889F989108260E874E874
S11307308EE190E0A70196010E947E0821503109C4
S1130740410951095695479537952795EC85FD85BF
S11307503083EE85FF852083188EEC89FD89108314
S1130760EA89FB89808180618083EA89FB898081B1
S113077088608083EA89FB89808180688083EA8934
S1130780FB8980818F7D8083DF91CF911F91FF90C2
S1130790EF90DF90CF9008951F920F920FB60F92B3
S11307A011242F938F939F93EF93FF93E0918002F3
S11307B0F09181028081E0918602F091870282FDAE
S11307C01BC09081809189028F5F8F7320918A0270
S11307D0821741F0E0918902F0E0E059FD4F958FD6
S11307E080938902FF91EF919F918F912F910F90A8
S11307F00FBE0F901F9018958081F4CF1F920F9217
S11308000FB60F9211242F933F934F935F936F93DF
S11308107F938F939F93AF93BF93EF93FF9380E75F
S113082092E00E94DB02FF91EF91BF91AF919F9103
S11308308F917F916F915F914F913F912F910F9085
S11308400FBE0F901F901895E0E7F2E0138212821A
S113085088EE93E0A0E0B0E084839583A683B78319
S113086082E592E09183808385EC90E0958784878C
S113087084EC90E09787868780EC90E0918B808B66
S113088081EC90E0938B828B82EC90E0958B848B4F
S113089086EC90E0978B868B118E128E138E148EBD
S11308A00895AF92BF92CF92DF92EF92FF920F938F
S11308B01F93CF93DF936C017B018B01040F151FF2
S11308C0EB015E01AE18BF08C017D10759F069915A
S11308D0D601ED91FC910190F081E02DC6010995BE
S11308E0892B79F7C501DF91CF911F910F91FF906B
S11308F0EF90DF90CF90BF90AF900895FB010190EF
S11309000020E9F73197AF01461B570BDC01ED914D
S1130910FC910280F381E02D09946115710511F0B9
S11309200C947E0490E080E008951092810010926F
S1130930800010928200109285001092840061154C
S113094020E1720781059105A0F4E4E0660F771FAA
S1130950EA95E1F76150710981E092E096BB9093CA
S11309606F00709389006093880088608093810091
S11309700895611520E872078105910530F4660F2A
S1130980771F6150710982E0E8CF6C3F2FEF720747
S113099023E08207910558F442E096958795779570
S11309A067954A95D1F76150710983E0D6CF6115F7
S11309B0710520E18207910558F434E096958795F6
S11309C0779567953A95D1F76150710984E0C5CF61
S11309D026E096958795779567952A95D1F7615086
S11309E0710985E0BACFE091F101F091F201F89438
S11309F081E0818B0895E091F101F091F201818908
S1130A00882311F0118A789408950F931F93CF933C
S1130A10DF9300D0CDB7DEB7E091F101F091F201A0
S1130A209FB7F89420853185232B51F09FBF81E037
S1130A3090E00F900F90DF91CF911F910F91089547
S1130A402CE438E03A8329830091F3011091F401F6
S1130A5021E030E031872087828780859185019766
S1130A6021F482E090E091878087808591850297C8
S1130A7051F4F80162817381AB01C8010E94A8009E
S1130A80C8010E94CA0690E080E0D3CFFF920F9382
S1130A901F93CF93DF9390E02091EB013091EC0111
S1130AA08217930728F52091E9013091EA01880F14
S1130AB0991F820F931FFC0100811181F801878126
S1130AC090850297A8F4FFB6F894C8010E94B8066E
S1130AD0EC01892B29F4B80187EE91E00E94F70616
S1130AE0FFBECE01DF91CF911F910F91FF9008952A
S1130AF0C3E0D0E0F6CFE091F101F091F201A081E2
S1130B00B1818785882319F0178685858FBF8189F0
S1130B10882311F0118A78948FB7F89464E378E00D
S1130B2012968D919C910E94C800DC011496ED915F
S1130B30FC9184E090E0938382830895EC01EC813E
S1130B40FD81818124E030E0338322838F3F09F0EB
S1130B507894E985FA850995E091F101F091F20123
S1130B60108A8785882319F0178685858FBF818928
S1130B70882311F0118A78948FB7F8948F8198851F
S1130B80EC81FD81029709F5A481B581109731F4B8
S1130B9064E378E08A819B810E94C8000D90BC9137
S1130BA0A02D14961C921E9213978D919C9195835F
S1130BB08483EACF0D90BC91A02D14961C921E92B2
S1130BC013978D919C9195838483A481B58110970B
S1130BD089F7DECFE091F101F091F20180859185F2
S1130BE00297E1F38091F3019091F4010C941908B8
S1130BF00F931F93CF93DF93EC01A881B981EB018D
S1130C00E881F9811696CD91DC9117972097C1F16F
S1130C108A819B81309709F43FC0EC010C811D81CE
S1130C2022813381E9014C815D81E8013981EA0146
S1130C302981321788F522E030E0E8013B832A83DA
S1130C4020813181EB0139832883C281D3812C81B6
S1130C503D8116964D915C91179751834083179669
S1130C60FC93EE931697CD93DC934C85F901518157
S1130C70541708F44183DF91CF911F910F91089588
S1130C80309751F0EC018A819B81EC014C815D81AC
S1130C9022E030E0EA01D2CF90E080E0ECCFCF93C5
S1130CA0DF93DB011296ED91FC9141155105A1F002
S1130CB02385DC01ED91FC91B0E0A0E0309789F44C
S1130CC0109709F16D937C9390E080E0DB01ED9344
S1130CD0FC93DF91CF9108950480F581E02D21816B
S1130CE0E8CFC281D3814115510541F03B853217CC
S1130CF038F3DF010190F081E02DE0CF0C80DD813D
S1130D00C02D3981F4CFDC016D937C9381E090E0B8
S1130D10DDCFFB015383428341E050E00C944F0646
S1130D20EF92FF920F931F93CF93DF938C01FC01FB
S1130D30C081D181EE80FF80F701808191819F8302
S1130D408E83C8010E94F805892B41F4EE81FF814E
S1130D50309761F08281938199838883C701DF9101
S1130D60CF911F910F91FF90EF900895F801F2CF6A
S1130D70DC011496ED91FC91159790811D968C9150
S1130D80981728F49F5F908390E080E0089584E0B2
S1130D9090E00895DC011496ED91FC9115971B9653
S1130DA08C918183808181508083811103C013825F
S1130DB01282089581E090E0938382830895E09104
S1130DC0E901F091EA0190E0880F991FE80FF91FFB
S1130DD060817181DB011496ED91FC9180818F5FBC
S1130DE0808350E040E087EE91E00C94BB07EF92E3
S1130DF0FF920F931F93CF93DF93DB011496ED9033
S1130E00FC90E091F101F091F20180819181EC017B
S1130E104C815D81A481B5812D913C911197EA01AA
S1130E200981E7011981011710F53583248322E034
S1130E3030E0EA013B832A8313967C936E931297E6
S1130E402681378111963C932E93B783A6837183B1
S1130E506083F701118610860E94F30781E090E019
S1130E60DF91CF911F910F91FF90EF9008958A81A8
S1130E709B81892B31F481E090E09B838A831986DE
S1130E8018863583248311961C921E92AB01BD01F2
S1130E90CF0102960E94890690E080E0E1CFAF92F4
S1130EA0BF92CF92DF92EF92FF920F931F93CF9353
S1130EB0DF93C091F101D091F201FE01E190F19034
S1130EC06F01F70104811581FB01F182E082F801D1
S1130ED082819381049731F5B60181EF91E00E94FC
S1130EE090065C01C880D980EC14FD04B1F0C70100
S1130EF00E94CA068C819D81F50191838083BD8205
S1130F00AC82C601DF91CF911F910F91FF90EF90BA
S1130F10DF90CF90BF90AF900895F8018081815009
S1130F208083E8CF6E817F81FB01808191819F83E3
S1130F308E83F7018385F801818381E090E09383B8
S1130F4082838081813011F411861086A701C60145
S1130F500E948906B60181EF91E00E94F805892B71
S1130F6039F4EE81FF81C280D380D982C882C9CF8F
S1130F70C880D980C6CFCF93DF93E091F101F0917F
S1130F80F2018081918126813781EC01AC81BD81A0
S1130F901296CD91DC911397249731F4C2E0D0E0FE
S1130FA01396DC93CE931297718360834115510598
S1130FB0B9F4A481B5814D915C9111975583448313
S1130FC011961C921E92B783A6830680F781E02DAA
S1130FD07383628331832083DF91CF910C94F30771
S1130FE057834683F2CFFB01DC0112964D915C914D
S1130FF062817381A481B58112968D919C9102972F
S113100019F4CF010C946000CF010C94A800CB011B
S1131010DB0112966D917C9113971496ED91FC91DE
S1131020228133812230310511F40C9480000C9418
S1131030A000DC0112966D917C911397ED91FC91C7
S113104040815181DB01ED91FC9122893389211585
S1131050310519F04217530729F4DB01ED93FC9392
S11310600C948000F901F1CFCF93DF9300D0CDB77A
S1131070DEB7BE016F5F7F4F87EE91E00E944F079E
S1131080BC0189819A810E9407080F900F90DF911B
S1131090CF910895F894FFCFE4E908958F939F9337
S11310A081E00E945E089F918F9118958F939F9382
S11310B080E00E945E089F918F9118951F920F9275
S11310C00FB60F9211242F933F934F935F936F9317
S11310D07F93AF93BF93EF93FF930E94DF06FF913B
S11310E0EF91BF91AF917F916F915F914F913F913C
S11310F02F910F900FBE0F901F900895A1E21A2E0A
S1131100AA1BBB1BFD010DC0AA1FBB1FEE1FFF1FA7
S1131110A217B307E407F50720F0A21BB30BE40BF7
S1131120F50B661F771F881F991F1A9469F760953E
S11311307095809590959B01AC01BD01CF010895F8
S1131140EE0FFF1F0590F491E02D0994AEE0B0E09E
S1131150ECEAF8E00C945E0B8C01FA0186E08C83D7
S11311601A83098377FF02C060E070E86150710957
S11311707E836D83A901BF01CE0101960E94D2082E
S11311804D815E8157FD0AC02F8138854217530770
S11311900CF49A01020F131FF80110822E96E4E05A
S11311A00C947A0BABE0B0E0E8EDF8E00C94500B53
S11311B07C013B018A01FC0117821682838181FF35
S11311C0C8C1CE0101965C01F7019381F30193FD3F
S11311D0859193FF81913F01882309F453C185329E
S11311E039F493FD859193FF81913F01853229F470
S11311F0B70190E00E94C20AE7CF912C212C312C38
S1131200FFE1F31538F08B3211F190F4803209F1DB
S1131210833229F137FC3CC020ED280F2A3050F5E9
S113122036FE20C08AE0989E200D1124922E06C01E
S11312308D3291F0803371F7689430F8F30193FDA7
S1131240859193FF81913F018111DACF21C0689488
S113125031F8689432F8F2CF689433F8EFCF689499
S113126034F8ECCFEAE02E9E200D1124222E68944F
S113127035F8E4CF8E3229F436FC04C1689436F88C
S1131280DDCF8C3619F4689437F8D8CF8836B1F2AC
S1131290982F9F7D95549330E0F08336A1F18337E6
S11312A0C1F1833509F063C02801F2E04F0E511CEF
S11312B0F801C080D180692D70E036FC02C06FEF68
S11312C07FEFC6010E94AC0A4C01689437F8820192
S11312D00AC00C5F1F4FFFE3F98388248394912C89
S11312E06501E89437F833FE2DC0522C8114910423
S11312F071F5552009F468CFB70180E290E00E94AF
S1131300C20A5A94F6CFF801808189830E5F1F4F79
S1131310E4CF2801F2E04F0E511CF801C080D180C7
S1131320692D70E036FC02C06FEF7FEFC6010E94AA
S1131330B70A4C018201D5CFB70180E290E00E9448
S1131340C20A2A942814190409F0B0F7CECFF60182
S113135037FC859137FE81916F01B70190E00E94BF
S1131360C20A51105A94F1E08F1A9108BFCF843603
S113137019F0893609F077C0F80137FE6BC0608137
S11313807181828193810C5F1F4FF32DFF763F2E75
S113139097FF09C090958095709561957F4F8F4F09
S11313A09F4F689437F82AE030E0A5010E94F20AC2
S11313B0C82ECA188C2C432C36FE0CC0E89440F876
S11313C0C91440F434FE05C032FC03C0F32DFE7E84
S11313D04F2E892C44FE95C0FE01EC0DF11D808139
S11313E0803309F087C0242D297E422E842D8870F5
S11313F0582E43FC95C040FE8FC09C2C821418F4D8
S11314002C0C922C981844FE91C0B70180E390E014
S11314100E94C20A42FE09C088E790E041FE02C071
S113142088E590E0B7010E94C20AC91408F48AC092
S1131430CA94D12C9FEFC91AD90ACA0CDB1CF60135
S113144082916F01B70190E00E94C20AAC14BD04FE
S1131450B1F74FCF60817181072E000C880B990B77
S11314600E5F1F4F92CFD32CE894D4F82AE030E0DB
S1131470853739F1232D297FD22E8F3601F148F497
S11314808835A9F0F701868197812B96E2E10C94C7
S11314906C0B803749F08837A9F7D4FE02C06894F2
S11314A0D2F820E130E00DC06894D4F8F6CF34FED1
S11314B003C0822F8660D82E20E132E002C028E0EB
S11314C030E0F801D7FE0FC0608171818281938181
S11314D00C5F1F4FA5010E94F20AC82ECA183D2CAA
S11314E0E89437F867CF6081718190E080E00E5F07
S11314F01F4FF0CF42FC02C0839478CF839483942F
S113150075CF842D867809F471CFF6CFB70180E2C8
S113151090E00E94C20A83948214C0F3512C73CFCA
S1131520522C5818821408F46ECFF8CF842D867884
S113153009F47BCF8BE241FE80E247FC8DE2B701E8
S113154090E071CFB70180E390E00E94C20A9A94C0
S11315506CCF8FEF9FEF99CFFC01059061507040E5
S11315600110D8F7809590958E0F9F1F0895FC0168
S11315706150704001900110D8F7809590958E0FBE
S11315809F1F08950F931F93CF93DF93182F092F55
S1131590EB018B8181FD09C01FEF0FEF812F902F8D
S11315A0DF91CF911F910F91089582FF14C02E8176
S11315B03F818C819D81281739073CF4E881F981AA
S11315C0CF0101969983888310838E819F81019630
S11315D09F838E83E3CFE885F985812F0995892B35
S11315E0A1F3DACFFA01AA27283051F1203181F191
S11315F0E8946F936E7F6E5F7F4F8F4F9F4FAF4F17
S1131600B1E03ED0B4E03CD0670F781F891F9A1F29
S1131610A11D680F791F8A1F911DA11D6A0F711DDD
S1131620811D911DA11D20D009F468943F912AE0E9
S1131630269F11243019305D3193DEF6CF010895D1
S1131640462F4770405D4193B3E00FD0C9F7F6CF02
S1131650462F4F70405D4A3318F0495D31FD4052CA
S1131660419302D0A9F7EACFB4E0A6959795879560
S113167077956795BA95C9F700976105710508953F
S11316809B01AC010A2E06945795479537952795EB
S1131690BA95C9F7620F731F841F951FA01D089583
S11316A02F923F924F925F926F927F928F929F926E
S11316B0AF92BF92CF92DF92EF92FF920F931F935C
S11316C0CF93DF93CDB7DEB7CA1BDB0B0FB6F8940D
S11316D0DEBF0FBECDBF09942A88398848885F844D
S11316E06E847D848C849B84AA84B984C884DF80BE
S11316F0EE80FD800C811B81AA81B981CE0FD11DA2
S11317000FB6F894DEBF0FBECDBFED010895F89477
S1051710FFCF05
S1131712FCFFFFFF3C020000160100000000FF0076
S11317220000000000001A0100001E010000220156
S11317320000260100002A010000000000000080D1
S11317420000000000000000000000800000000013
S11317520000000000000001000000000000000082
S11317620000000200000000000000000000010070
S113177204000000000000000000015461736B319A
S113178220426567696E732E2E2E005461736B318D
S11317922046696E69736865732E2E2E0054617338
S11317A26B3220426567696E732E2E2E005461736C
S11317B26B322046696E69736865732E2E2E000A99
S11317C225346C643A20003C425554544F4E20490F
S11317D253523E000A2E2E2E2E2E2E2E2E2E2E2E1C
S11317E22E2E2E2E0A002E2E2E4F5320537461724B
S11317F274732E2E2E0A000D03FA010500F5010161
S11318020004013C02F701600202040212022002F7
S11318122E023C024A0265022E01000200020180ED
S113182280014A0265023A01010200290180800115
S11318324A0265024601020000D2000101024A0284
S113184265025201030000EA000202024A02650232
S11318525E01040300EA050000010000000000002C
S113186200001D035104CC02FD029E02B802AA022A
S9030000FC
